:0200000057297E
:10000800FF00030E8301B1000A08B2008A017008DC
:10001800A4007108A3007B08A2007C08A1007D0849
:10002800A0008B1C9E288B10861C1B289E28250848
:1000380026040130031D0030F1007108003A03194D
:100048003028250826040130031D0030F10071080E
:10005800013A031930283228A501A601A50A031977
:10006800A60A00302606031D3B2801302506031D7D
:100078006A2821308800051085140330A900003053
:10008800AA0080302A06F00080307002031D4E2836
:1000980000302902031C6528290887000B30FB0063
:1000A8002630FC005D30FD00FD0B5828FC0B58285D
:1000B800FB0B5828000000000130A902031CAA030A
:1000C8004528051485140A3088009E280030260625
:1000D800031D702802302506031D9E280C30880059
:1000E800051085140330A9000030AA0080302A06C4
:1000F800F00080307002031D832800302902031CA1
:100108009A28290887000B30FB002630FC005D3058
:10011800FD00FD0B8D28FC0B8D28FB0B8D280000A6
:1001280000000130A902031CAA037A2805148514CB
:10013800113088002408F0002308F1002208FB0091
:100148002108FC002008FD0032088A00310E8300D7
:06015800FF0E7F0E0900FE
:10015E00710DF80DF90D7408F8027508031C750F72
:10016E00F902F00DF10D0F30FC00710DF80DF90DC7
:10017E007408701CC828F8027508031C750FF90264
:10018E00CD28F80775080318750FF907F00DF10D56
:10019E00FC0BBC287018D9287408F80775080318CA
:0801AE00750FF90700000800BD
:0E01B6008312031328088A002708820008001D
:1001C400DB208A110A128000840AA70A0319A80AEC
:0801D400F003031DE2280800FE
:1001DC00831203137408003A031DFD287508003AB6
:1001EC00031DFD28FF30F0007F30F10056298312EB
:1001FC000313FD01F901F8017108700403190034AF
:10020C0071087506FA00FA1BFD09FB01F51F13298D
:10021C00F409F509F40A0319F50AF11F1A29F00972
:10022C00F109F00A0319F10A71087504FA00FA1BB6
:10023C002F29AF207B184229FD1F0034F009F1094A
:10024C00F00A0319F10AF809F909F80A0319F90A6D
:10025C000034F51F3E29F11B3A297108F90070088A
:10026C00F800F101F0012229F101F001F00A00344B
:10027C00F109F009FB0A1F29F80A0319F90A740895
:10028C007802031D222975087902031D2229F90120
:10029C00F801F00A0319F10AF11F22290000FF34BA
:0202AC00080048
:1002AE0083120313A501A601073083169F00880150
:1002BE00080885000508870006148614013083128D
:1002CE008600870107088800051485148B170B1606
:1002DE0083160113113083128800861C8C2A061C8B
:1002EE008C2A1730A9000030AA0080302A06F000B0
:1002FE0080307002031D852900302902031C022A5A
:10030E0086189029061C9029113088000514851432
:10031E00C92900302A06031D962900302906031D1F
:10032E009B290A308800AB298030F00080302A06E5
:10033E007002031DA4292908033C031CA92921309E
:10034E008800AB29113088000A30F4000030F50027
:10035E002908F0002A08F100EE207008AB007108A1
:10036E00AC000A30F4000030F5002908F0002A082D
:10037E00F100EE207808F0007908F1007008AD0069
:10038E007108AE00AF01B00180303006F000803051
:10039E007002031DD42932302F020318FD2986184E
:1003AE00DF29061CDF291130880005148514F92970
:1003BE00851405102D0887001A30FC00F830FD005A
:1003CE00FD0BE729FC0BE7290000851005142B080F
:1003DE0087001A30FC00F830FD00FD0BF429FC0BF1
:1003EE00F4290000AF0A0319B00ACB290130A90283
:1003FE00031CAA037C290F30A9000030AA0080300C
:10040E002A06F00080307002031D0F2A00302902E8
:10041E00031C8C2A86181A2A061C1A2A11308800E8
:10042E0005148514532A00302A06031D202A003095
:10043E002906031D252A11308800352A8030F00048
:10044E0080302A067002031D2E2A2908033C031C45
:10045E00332A0C308800352A0A3088000A30F4001E
:10046E000030F5002908F0002A08F100EE2070088F
:10047E00AB007108AC000A30F4000030F50029081A
:10048E00F0002A08F100EE207808F0007908F1005B
:10049E007008AD007108AE00AF01B00180303006BB
:1004AE00F00080307002031D5E2A32302F020318D6
:1004BE00872A8618692A061C692A113088000514B5
:1004CE008514832A851405102D0887001A30FC0028
:1004DE00F830FD00FD0B712AFC0B712A000085100F
:1004EE0005142B0887001A30FC00F830FD00FD0BB8
:1004FE007E2AFC0B7E2A0000AF0A0319B00A552A89
:0E050E000130A902031CAA03062A74298D2AB3
:02400E004A2F37
:00000001FF
